:020000040000FA
:060000007CEF03F012008A
:020006001200E6
:0400080095EF01F07F
:04000C0002002A07BD
:1000100000008000000007000000140700006000DE
:06002000000016000000C4
:0A0026000F6A07EC01F01FEC01F077
:100030000FB6AFEF00F00FA205D00FB8AFEF00F092
:10004000B6EF00F00FAA05D00FB0AFEF00F0B6EF9B
:1000500000F00FB002D00FA802D0C2EF00F0036A88
:100060000D500824026EE86A03227E0E025EE86AE2
:10007000035A126A136A006A016A0C500702F4CF2D
:1000800001F0F3CF00F00B500702F3501326F450A9
:100090000022000E01220C500602F3501326F450E9
:1000A0000022000E01220A500702F3501226F450DB
:1000B0001322000E002201220B500602F3501226DA
:1000C000F4501322000E002201220C500502F350BE
:1000D0001226F4501322000E002201220A500602BA
:1000E000F4501226000E1322002201220B500502AA
:1000F000F4501226000E132200220122CBEF00F052
:100100000F6A07EC01F00FB68AEF00F00FA20ED0D5
:100110000FB405D07F0E076EFF0E066E1FD0800E47
:10012000076E066A1BD0076A066A18D00FB0FBD7A5
:100130008F0E0860EDD77E0E0864F5D78E0E085C32
:1001400005E0D89007320632082AF8D70FA406D067
:10015000066C071EE86A072207AEE5D712007F0E7D
:10016000086EFF0E076E066E056E12007F0E0FBE44
:10017000FF0E086E02D07F0E086E800E076E066AB4
:10018000056AF3D70FAE04D0800E086E076AF7D762
:10019000086A076AF4D70150001013101210F8E033
:1001A00003BEF0D701BE0CD002500310EBE0D89094
:1001B00012361336003601360206D8A00306F2D7EF
:1001C0000350D4E10228D2E012AE11D07F0E1214F7
:1001D00002E113A00CD0132AE86A0022012207E3EF
:1001E000D880013200321332022A0228BFE00250C6
:1001F000C9E013C005F000C006F00134076E0230FC
:10020000086E0732089E0FBE088EB5EF00F0073665
:10021000083602E30F840F7E06E10F80086A076A42
:10022000066A056A1200082803E0D8800732120027
:10023000D890073202E10F8212000F8612000C36AE
:100240000D3602E30F8C0F7E06E10F880D6A0C6AF3
:100250000B6A0A6A12000D2803E0D8800C321200E3
:0A026000D8900C32EAE10F8A120078
:06026A00C2900F0EC16EF0
:10027000929AD09EF28EF28C9E929D8251EC02F068
:1002800052EC02F05ED800018551050A42E0010AF5
:1002900034E0070A20E0010A15E0030A09E0010A38
:1002A000F2E152EC02F0B2D8C0D8CCD8010E21D085
:1002B00072C0E6FF73C0E6FFE8D8BBD8D3D8000110
:1002C000020E17D0ADD8B1D8A1D8E5D8A9D8B4D8E6
:1002D000B9D8030E0ED072C0E6FF73C0E6FFCFD8C8
:1002E0000001865101E1A5D8BDD80001865103E087
:1002F000040E856FC8D7856BC6D792D8C0D886D86C
:100300009BD884D8B6D882D8A5D8200E0C6E410EC2
:100310000AD08FD880D890D87ED8ABD87CD89AD83D
:10032000A00E0C6E400E42D8AED7DACFE4FFE652F4
:100330009EA203D00001842B9E92E552E5CFDAFF06
:100340001100CA84CA80CA82CA86CA88CA8ACA8C6C
:10035000CC6ACB681200D9CFE6FFE1CFD9FF020EFD
:10036000E126DE6ADD6ADECF14F0DDCF15F0FD0E8A
:10037000DBCF16F0FE0EDBCF17F01650145C1750D3
:1003800015580AE2050EE66E5CEC03F0E552DF2A32
:10039000010EE9E3DB2AE7D7020EE15C02E2E16A43
:1003A000E552E16EE552E7CFD9FF12000D6E80C035
:1003B00005F081C006F082C007F083C008F013EC9E
:1003C00000F005C016F006C017F007C018F008C00E
:1003D00019F00A6A0B6A7A0E0C6E440E0D6E13EC5D
:1003E00000F080EC00F006C014F007C015F006C065
:1003F000E6FF07C0E6FFAFDFE552E55212005BEC17
:1004000002F0E552E552E552E552120070C0E6FFF7
:1004100071C0E6FF120074C0E6FF75C0E6FF12006F
:100420006EC0E6FF6FC0E6FF12002FD8EFDF3FEF90
:1004300002F0F1DF4BEF02F066C0E6FF67C0E6FFB7
:10044000FFEF01F00A6A0B6A340E0C6E420EAEDF4B
:10045000000112006AC0E6FF6BC0E6FFD0DF0A6A47
:100460000B6A12000A6A0B6A700E0C6E410ED6EF10
:1004700001F068C0E6FF69C0E6FFFFEF01F062C06F
:10048000E6FF63C0E6FFFFEF01F060C0E6FF61C07A
:10049000E6FFFFEF01F064C0E6FF65C0E6FFFFEF97
:0204A00001F069
:0E04A2001200836A826A828482888380838447
:1004B0008388838C1200D9CFE6FFE1CFD9FFFD0EF0
:1004C000DBCF06F0FE0EDBCF07F0060E061801E1CB
:1004D000075001E17DD0050E061801E1075068E0E4
:1004E000040E061801E1075053E0030E061801E15F
:1004F00007503EE0020E061801E107501FE0010E12
:10050000061875E1075073E18290829282947ED83A
:1005100005E16F51151802E1829469D07AD805E19E
:100520007151151802E1829062D065D87251141889
:100530005EE1735115185BE1829259D08298829ADC
:10054000829C64D805E16F51151802E182884FD072
:1005500060D805E17151151802E1828C48D04BD862
:100560007251141844E17351151841E1828A3FD049
:10057000839083924BD805E16F51151802E1838077
:1005800036D047D834E17151151831E183822FD02C
:10059000839483963BD805E16F51151802E183845B
:1005A00026D037D824E17151151821E183861FD058
:1005B0008398839A2BD805E16F51151802E183883F
:1005C00016D027D814E17151151811E1838A0FD084
:1005D000839C839E1BD805E16F51151802E1838C23
:1005E00006D017D804E17151151801E1838EE55248
:1005F000E7CFD9FF1200FB0EDBCF14F0FC0EDBCFF0
:1006000015F0120000016E5114181200F4DF02EF11
:0A06100003F0F1DF7051141812001E
:06061A000C0EF66E000E4E
:10062000F76E000EF86E00010900F5507B6F0900AF
:10063000F5507C6F03E17B6701D03DD00900F55098
:10064000766F0900F550776F0900F550786F090053
:100650000900F550E96E0900F550EA6E090009003D
:100660000900F550796F0900F5507A6F090009000B
:10067000F6CF7DF0F7CF7EF0F8CF7FF076C0F6FFB3
:1006800077C0F7FF78C0F8FF0001795302E17A5391
:1006900007E00900F550EE6E7907F8E27A07F9D71E
:1006A0007DC0F6FF7EC0F7FF7FC0F8FF00017B072B
:0806B000000E7C5BBFD71200B5
:0806B800FF0EE3501A6E480E1C
:1006C00001D04C0EE76EE72EFED7E76AE72EFED785
:0806D0001A2EF7D700001200FA
:0806D800000EF36E00EE00F0CD
:1006E000080E01D81200EA6002D0EE6AFCD7F3507F
:0806F000E9601200EE6AFCD77C
:0806F80013EE00F023EE00F008
:10070000F86A0F9C0DEC03F003EC00F035EC01F0FF
:04071000FBD7120001
:0C071400010002000300040005000600C4
:0A07200007000100020003000400BE
:06072A000000803F00000A
:0107300000C8
:020000040030CA
:0100000000FF
:010001000CF2
:0100020019E4
:010003001EDE
:010005008377
:010006008178
:00000001FF
